:020000020000FC
:100000000C9404000C942D000FE50DBF04E00EBF0E
:100010000E94CD000E9459000E947200F8940E9434
:1000200003010E94B30078940E941A000E940E01FE
:100030000C940C002F933F9320916000309162004C
:10004000231308C02091610030916300231302C084
:100050000E9459002F913F9108950F930FE30F9342
:100060001F93BF93AF9328BA50916400543010F09F
:10007000552701C053950E944E00A50FB21D0C914B
:10008000152F110F110F08BB1BBB50936400AF91CC
:10009000BF911F910F910FBF0F9118950F93009172
:1000A0006A000395093108F0002700936A000F9158
:1000B00008952F933F9320E032E020936000309327
:1000C0006100F8942F922F920E94EF002F913F91A0
:1000D000789420936200309363000E9419013F914D
:1000E0002F9108953F930F9300E0309160000E949C
:1000F00087003093600001E0309161000E9487002A
:10010000309361000E949D000F913F9108952F93BD
:100110001F930E94970023E0121303C000C0339581
:1001200003C0121101C03A951F912F91089507B98C
:10013000369A3699FECF15B108950091600017E008
:100140000E94AC00009360000091610015E00E94E5
:10015000AC0000936100089500601AF0011711F4DB
:10016000025003950895FF27E0E60E94BC00FF2798
:10017000E2E60E94BC00089511910E94C600108121
:10018000E5E6E10F1081102B1083089501E01A9528
:100190001AF0000F0C94C7000895222420926400E6
:1001A0000E94DB000E94E2000E94E7000E9403011F
:1001B0000E94EC0008950F930CEF0ABB0FEF07BBF2
:1001C0000F91089500E007B900E806B9089500E42A
:1001D0000BBF02E005BF1895B0E0A5E608950EB785
:1001E000F02F0DB7E02F0F9300916A0033270530F1
:1001F00018F005503395FBCF202F239523950F91B1
:100200002383348308952092650020926600209213
:100210006700209268002092690008957F938F9371
:100220008FEF76E47A95F1F78A95D9F78F917F91E0
:100230000895F8944F932F931F931FEF40E84BBB03
:100240000E942D0140E04BBB0E942D011A95B1F791
:100250001F912F914F91789408952CE326952A951C
:04026000F1F7089515
:00000001FF
